:04100000C1EF3FF00D
:107F8200066A0001DFEF3FF001500210D8B4120080
:107F9200000E056E000E046E0AD0100E036E940ED3
:107FA200E82EFED7032EFCD700D0044A052A015042
:107FB200045C02500558D8B01200EFD7000E956E3F
:107FC2002B0E836E030E026EE80E016EC5EC3FF0BF
:107FD200839A8388030E026EE80E016EC5EC3FF0B1
:107FE2008390030E026EE80E016EC5EC3FF083969D
:0E7FF200030E026EE80E016EC5EC3FF0E1D703
:020000040020DA
:08000000FFFFFFFFFFFFFFFF00
:020000040030CA
:0E00000000051F1FFF8385FF0FC00FE00F409C
:00000001FF
